S01700004763634170706C69636174696F6E312E737265635B
S113000045C0000053C0000051C000004FC00000B4
S11300104DC000004BC0000049C0000047C00000B4
S113002045C0000043C0000041C000003FC00000C4
S11300303DC000003BC0000039C0000037C00000D4
S113004035C0000033C000004DC000002FC00000C8
S11300502DC000002BC0000029C0000027C00000F4
S113006025C0000023C0000021C000001FC0000004
S11300701DC000001BC0000019C0000017C0000014
S113008015C0000013C0000011C0000011241FBEE1
S1130090CFEFD0E1DEBFCDBF21E0A0E0B1E001C0F1
S11300A01D92A130B207E1F712D02FC0A9CF9093CF
S11300B0900089B988E18AB98EE08093950008950B
S11300C05D9BFECF95B3909595BB8CB9089587E65B
S11300D090E0EDDF7894579A85E6F2DF8FEF84BBEA
S11300E015BAFFCF1F920F920FB60F9211248F9360
S11300F08CB1809300018CB985B3809585BB8F91B9
S11101000F900FBE0F901F901895F894FFCF2C
S9030000FC
