S02200004F42436D2D2D4D41472D2D4654323031372D2D416E69727564682E73726563AF
S113000045C0000060C000005EC000005CC000008D
S11300105AC0000058C0000056C0000054C0000080
S113002052C0000050C000004EC000004CC0000090
S11300304AC0000048C0000046C0000044C00000A0
S113004042C0000040C00000DDC000003CC0000011
S11300503AC0000038C0000036C0000034C00000C0
S113006032C0000030C000002EC000002CC00000D0
S11300702AC0000028C00000EEC1000024C0000017
S113008022C0000020C000001EC0000011241FBEBA
S1130090CFEFD0E1DEBFCDBF11E0A0E0B1E0EAE3F5
S11300A0FEE000E00BBF02C007900D92AC38B10730
S11300B0D9F721E0ACE8B1E001C01D92A73AB2073C
S11300C0E1F70ED2B8C69CCFCF93DF93CFE0CABB83
S11300D082E091E06ED2CBBB2FEF81EE94E0215011
S11300E080409040E1F700C00000D0EFDBBB2FEF71
S11300F081EE94E0215080409040E1F700C0000080
S113010086E091E056D2CBBB2FEF81EE94E02150F4
S113011080409040E1F700C00000DBBB2FEF81EE90
S113012094E0215080409040E1F700C000008AE054
S113013091E03FD2CBBB2FEF81EE94E02150804081
S11301409040E1F700C00000DBBB2FEF81EE94E0AC
S1130150215080409040E1F700C000008EE091E023
S113016028D2CBBB2FEF81EE94E021508040904009
S1130170E1F700C00000DBBB2FEF81EE94E02150DB
S113018080409040E1F700C000001BBA2FEF81EEE1
S113019094E0215080409040E1F700C00000DF91DE
S11301A0CF91089582E391E0EEC1089588E391E050
S11301B0EAC108958EE391E0E6C1089510928D019D
S11301C010928C0184E491E0DEC108958AE491E008
S11301D0DAC1089580E591E0D6C108958AE591E0F9
S11301E0D2C1089581E691E0CEC1089588E691E0F8
S11301F0CAC108958FE691E0C6C1089586E791E0EB
S1130200C2C108951F920F920FB60F9211240BB61C
S11302100F922F933F934F935F936F937F938F939B
S11302209F93AF93BF93EF93FF938CB1813631F4D7
S1130230B9DF10920101109200012DC0873711F42B
S1130240D1DF29C0893311F4C5DF25C0823641F4DA
S1130250ADDF81E090E090930101809300011BC029
S1130260803711F4ABDF17C0833611F4AFDF13C04E
S1130270833711F49FDF0FC0803311F4B7DF0BC055
S1130280813311F4B7DF07C0823311F4B7DF03C041
S1130290873609F4A3DFFF91EF91BF91AF919F914E
S11302A08F917F916F915F914F913F912F910F901B
S11302B00BBE0F900FBE0F901F901895CF92DF9238
S11302C0EF92FF920F931F93CF93DF93CDB7DEB7D7
S11302D06E970FB6F894DEBF0FBECDBFE9E9F1E02B
S11302E0228130E07381448150E06581808190E017
S11302F0982F8827E1818E0F911D9093A6018093FA
S1130300A501322F2227270F311D30939801209306
S11303109701342F2227260F311D3093A0012093FB
S11303209F019F938F930DE711E01F930F93CE01CD
S113033001966C019F938F93A3D2809198018F9320
S1130340809197018F931F930F937E019BE0E90E99
S1130350F11CFF92EF9294D28091A0018F9380912F
S11303609F018F931F930F938E010B5E1F4F1F935B
S11303700F9386D280E891E01CD1C6011AD183E89C
S113038091E017D1C70115D183E891E012D1C801DA
S113039010D187E891E00DD16091A5017091A6017B
S11303A0072E000C880B990BDFD120E030E64AEED3
S11303B056E470D19B01AC0109D16093A101709303
S11303C0A2018093A3019093A4016091970170917D
S11303D09801072E000C880B990BC6D120E030E65B
S11303E04AEE56E457D19B01AC01F0D060939301DF
S11303F070939401809395019093960160919F016D
S11304007091A001072E000C880B990BADD120E050
S113041030E64AEE56E43ED19B01AC01D7D060935E
S11304208E0170938F0180939001909391010FB688
S1130430F894DEBF0FBECDBF6E960FB6F894DEBF44
S11304400FBECDBFDF91CF911F910F91FF90EF9021
S1130450DF90CF9008951F920F920FB60F92112440
S11304600BB60F922F933F934F935F936F937F93AA
S11304708F939F93AF93BF93EF93FF9380919C00CF
S113048080939201809192017AD0809100019091A1
S11304900101019791F480918C0190918D0120913B
S11304A09201FC01E756FE4F2083019690938D0143
S11304B080938C01069709F401DFFF91EF91BF91BE
S11304C0AF919F918F917F916F915F914F913F91E8
S11304D02F910F900BBE0F900FBE0F901F90189589
S11304E021D031D02FEF83ED90E321508040904014
S11304F0E1F700C00000E8DD2FEF83ED90E3215029
S113050080409040E1F700C00000DEDD2FEF83ED76
S113051090E3215080409040E1F700C00000D4DD1A
S11305207894FFCF1BB81AB8E5E9F0E01082599A25
S11305308AB188698AB980818E60808387E689B9A7
S1130540109290000895CF93DF93CBE9D0E0188206
S1130550AAE9B0E01C92EDE9F0E0108288818260A3
S113056088838C9188698C9380818E60808387E6F0
S11305708093990010929800DF91CF9108955D9B2C
S1130580FECF8CB90895CF93DF93FC012081222301
S113059069F0DC011196EBE9F0E0CCE9D0E0908160
S11305A095FFFDCF28832D912111F9CFDF91CF91B4
S11305B00895FC019081992339F031965D9BFECF1B
S11305C09CB991919111FACF08955058BB27AA274D
S11305D00ED01CC10DD130F012D120F031F49F3F68
S11305E011F41EF402C10EF4E095E7FBF8C0E92F04
S11305F01ED180F3BA17620773078407950718F0B2
S113060071F49EF536C10EF4E0950B2EBA2FA02D91
S11306100B01B90190010C01CA01A0011124FF27AB
S1130620591B99F0593F50F4503E68F11A16F040A6
S1130630A22F232F342F4427585FF3CF46953795A5
S11306402795A795F0405395C9F77EF41F16BA0B6A
S1130650620B730B840BBAF09150A1F0FF0FBB1F18
S1130660661F771F881FC2F70EC0BA0F621F731F61
S1130670841F48F4879577956795B795F7959E3FBE
S113068008F0B3CF9395880F08F09927EE0F97954C
S1130690879508950CD0BAC0B2D040F0A9D030F0FC
S11306A021F45F3F19F09BC05111E4C09EC0BFD03C
S11306B098F39923C9F35523B1F3951B550BBB2725
S11306C0AA2762177307840738F09F5F5F4F220FD2
S11306D0331F441FAA1FA9F333D00E2E3AF0E0E8CB
S11306E030D091505040E695001CCAF729D0FE2F17
S11306F027D0660F771F881FBB1F261737074807A9
S1130700AB07B0E809F0BB0B802DBF01FF2793585E
S11307105F4F2AF09E3F510568F061C0ABC05F3F58
S1130720ECF3983EDCF3869577956795B795F79546
S11307309F5FC9F7880F911D9695879597F908953E
S1130740E1E0660F771F881FBB1F621773078407DA
S1130750BA0720F0621B730B840BBA0BEE1F88F7E9
S1130760E0950895E89409C097FB3EF49095809530
S1130770709561957F4F8F4F9F4F9923A9F0F92F63
S113078096E9BB279395F695879577956795B795E1
S1130790F111F8CFFAF4BB0F11F460FF1BC06F5FC7
S11307A07F4F8F4F9F4F16C0882311F096E911C0D9
S11307B0772321F09EE8872F762F05C0662371F0FA
S11307C096E8862F70E060E02AF09A95660F771F0E
S11307D0881FDAF7880F9695879597F9089597F902
S11307E09F6780E870E060E008959FEF80EC0895D3
S11307F000240A94161617061806090608950024FC
S11308000A9412161306140605060895092E039475
S1130810000C11F4882352F0BB0F40F4BF2B11F4E9
S113082060FF04C06F5F7F4F8F4F9F4F089557FD48
S11308309058440F551F59F05F3F71F04795880F4A
S113084097FB991F61F09F3F79F0879508951216E1
S113085013061406551FF2CF4695F1DF08C016168D
S113086017061806991FF1CF86957105610508943E
S11308700895E894BB2766277727CB0197F9089555
S11308800F931F93CF93DF93CDB7DEB72E970FB699
S1130890F894DEBF0FBECDBF0D891E8986E08C8320
S11308A01A8309838FEF9FE79E838D83AE01475E92
S11308B05F4F6F89788DCE01019610D0EF81F88556
S11308C0E00FF11F10822E960FB6F894DEBF0FBE14
S11308D0CDBFDF91CF911F910F9108952F923F9239
S11308E04F925F926F927F928F929F92AF92BF923C
S11308F0CF92DF92EF92FF920F931F93CF93DF93E8
S1130900CDB7DEB72B970FB6F894DEBF0FBECDBFC1
S11309106C017B018A01FC0117821682838181FFAD
S1130920BFC1CE0101963C01F6019381F70193FD0D
S1130930859193FF81917F01882309F4ADC18532AC
S113094039F493FD859193FF81917F01853221F4E0
S1130950B60190E0D6D1E8CF912C212C312CFFE1C7
S1130960F315D8F08B3279F038F4803279F0833291
S1130970A1F4232D20611DC08D3261F0803369F410
S1130980232D216016C0832D8260382EE32DE46070
S11309903E2E2AC0F32DF8601DC037FC2DC020ED7B
S11309A0280F2A3040F08E32B9F436FC75C1232D5D
S11309B02064322E19C036FE06C08AE0989E200DAF
S11309C01124922E11C0EAE02E9E200D1124222E15
S11309D0F32DF0623F2E08C08C3621F4832D8068FD
S11309E0382E02C0883641F4F70193FD859193FFB8
S11309F081917F018111B3CF982F9F7D95549330BE
S1130A0028F40C5F1F4F9FE399830DC0833631F0A8
S1130A10833771F0833509F055C020C0F801808117
S1130A2089830E5F1F4F88248394912C530112C035
S1130A302801F2E04F0E511CF801A080B18036FE6F
S1130A4003C0692D70E002C06FEF7FEFC5014ED186
S1130A504C018201F32DFF773F2E15C0280122E0BF
S1130A60420E511CF801A080B18036FE03C0692DEE
S1130A7070E002C06FEF7FEFC5012DD14C01F32D63
S1130A80F0683F2E820133FC19C0822D90E0881655
S1130A909906A0F4B60180E290E033D12A94F5CF10
S1130AA0F50137FC859137FE81915F01B60190E035
S1130AB028D121102A9421E0821A910881149104EA
S1130AC079F7E1C0843611F0893639F5F80137FE3B
S1130AD007C060817181828193810C5F1F4F08C0C0
S1130AE060817181072E000C880B990B0E5F1F4FDC
S1130AF0F32DFF763F2E97FF09C090958095709552
S1130B0061957F4F8F4F9F4FF0683F2E2AE030E072
S1130B10A30133D1882E861844C0853731F4232DA0
S1130B202F7EB22E2AE030E025C0932D997FB92E76
S1130B308F36C1F018F4883579F0AEC0803719F0DB
S1130B40883721F0A9C0E92FE061BE2EB4FE0DC0A4
S1130B50FB2DF460BF2E09C034FE0AC0292F266085
S1130B60B22E06C028E030E005C020E130E002C02B
S1130B7020E132E0F801B7FE07C060817181828113
S1130B8093810C5F1F4F06C06081718180E090E00B
S1130B900E5F1F4FA301F1D0882E8618FB2DFF771F
S1130BA03F2E36FE0DC0232D2E7FA22E891458F41D
S1130BB034FE0BC032FC09C0832D8E7EA82E05C0E6
S1130BC0B82CA32C03C0B82C01C0B92CA4FE0FC0B0
S1130BD0FE01E80DF11D8081803321F49A2D997E68
S1130BE0A92E09C0A2FE06C0B394B39404C08A2DF2
S1130BF0867809F0B394A3FC10C0A0FE06C0B2141A
S1130C0080F4280C922C9B180DC0B21458F4B60131
S1130C1080E290E076D0B394F8CFB21418F42B1895
S1130C2002C0982C212CA4FE0FC0B60180E390E0F2
S1130C3068D0A2FE16C0A1FC03C088E790E002C001
S1130C4088E590E0B6010CC08A2D867851F0A1FEAB
S1130C5002C08BE201C080E2A7FC8DE2B60190E005
S1130C6050D0891430F4B60180E390E04AD09A94CD
S1130C70F8CF8A94F301E80DF11D8081B60190E06C
S1130C8040D08110F6CF222009F44ECEB60180E286
S1130C9090E037D02A94F7CFF6018681978102C07D
S1130CA08FEF9FEF2B960FB6F894DEBF0FBECDBF2C
S1130CB0DF91CF911F910F91FF90EF90DF90CF9034
S1130CC0BF90AF909F908F907F906F905F904F9068
S1130CD03F902F900895FC010590615070400110E1
S1130CE0D8F7809590958E0F9F1F0895FC01615051
S1130CF0704001900110D8F7809590958E0F9F1F3A
S1130D0008950F931F93CF93DF93FB01238121FD5C
S1130D1003C08FEF9FEF2CC022FF16C0468157817E
S1130D20248135814217530744F4A081B1819D0188
S1130D302F5F3F4F318320838C93268137812F5F30
S1130D403F4F3783268314C08B01EC01FB010084E1
S1130D50F185E02D0995892BE1F6D80116968D9140
S1130D609C911797019617969C938E931697CE0194
S1130D70DF91CF911F910F910895FA01AA2728308E
S1130D8051F1203181F1E8946F936E7F6E5F7F4F54
S1130D908F4F9F4FAF4FB1E03ED0B4E03CD0670FD0
S1130DA0781F891F9A1FA11D680F791F8A1F911D23
S1130DB0A11D6A0F711D811D911DA11D20D009F473
S1130DC068943F912AE0269F11243019305D3193B5
S1130DD0DEF6CF010895462F4770405D4193B3E09E
S1130DE00FD0C9F7F6CF462F4F70405D4A3318F045
S1130DF0495D31FD4052419302D0A9F7EACFB4E0F6
S1130E00A6959795879577956795BA95C9F70097AD
S1130E106105710508959B01AC010A2E069457954E
S1130E20479537952795BA95C9F7620F731F841FA5
S10D0E30951FA01D0895F894FFCF4C
S1130E3A01005F615F005F625F005F635F005F6480
S1130E4A5F00206C65645F612000206C65645F62EA
S1130E5A2000206C65645F632000206C65645F6415
S1130E6A20002A3030410D002A3030420D002A3049
S1130E7A30230D002A3030500D002A3030430D0043
S1130E8A2A39392142523D530D002A393957450D21
S1130E9A002A303057450D002A30305A4E0D002AA8
S1130EAA30305A460D002A30305A520D002564005B
S10F0EBA282000202C200020292000000B
S9030000FC
