:1000000045C0000053C0000051C000004FC00000B8
:100010004DC000004BC0000049C0000047C00000B8
:1000200045C0000043C0000041C000003FC00000C8
:100030003DC000003BC0000039C0000037C00000D8
:1000400035C0000033C000004EC100002FC00000CA
:100050002DC000002BC0000029C0000027C00000F8
:1000600025C0000023C0000021C000001FC0000008
:100070001DC000001BC0000019C0000017C0000018
:1000800015C0000013C0000011C0000011241FBEE5
:10009000CFEFD0E1DEBFCDBF21E0A0E0B1E001C0F5
:1000A0001D92A932B207E1F7F9D03AC1A9CF5D9B01
:1000B000FECF95B3909595BB8CB90895CF93DF9300
:1000C0008AE090E09093200180931F01409101010C
:1000D00050910201141615061CF5D0910501C0912E
:1000E0000601E7E0F1E06AE070E080E090E0228164
:1000F0003381621773073CF0A481B581119719F41D
:10010000D82FC92FB90101963896841795077CF32B
:100110007093200160931F01D0930501C0930601E5
:10012000E0910501F0910601EE0FFF1FEE0FFF1F9A
:10013000EE0FFF1FE95FFE4F0190F081E02D099562
:10014000DF91CF910895BACF0895209101013091A8
:100150000201F901EE0FFF1FEE0FFF1FEE0FFF1F51
:10016000E95FFE4F73836283918380835783468365
:1001700081E090E0958384832F5F3F4F30930201AD
:10018000209301010895E0910501F0910601EE0F21
:10019000FF1FEE0FFF1FEE0FFF1FE95FFE4F1582DF
:1001A00014828CCF0895609101017091020116169E
:1001B00017069CF4E7E0F1E020E030E0A1E0B0E0D9
:1001C000468157814817590711F4B583A4832F5FDF
:1001D0003F4F3896261737079CF370CF089510E0ED
:1001E000D0E0CFEF809127019091280118161906D1
:1001F000F4F4812F9D2FCBBB2FEF39E648E121503E
:1002000030404040E1F700C000001BBA2FEF39E654
:1002100048E1215030404040E1F700C00000019625
:1002200020912701309128018217930724F3ABDF37
:10023000D9CF10E0D0E0CFEF809127019091280135
:1002400018161906F4F4812F9D2FC8BB2FEF39E63D
:1002500048E1215030404040E1F700C0000018BAAA
:100260002FEF39E648E1215030404040E1F700C02F
:1002700000000196209127013091280182179307F1
:1002800024F38AE090E08FDFD7CF9093900089B974
:1002900088E18AB98EE080939500089581E090E02E
:1002A000909328018093270187E690E0EEDF789411
:1002B000579A85E690E0FBDE8FEF84BB8ABB87BB55
:1002C00085BB4AE050E061E070E08FEE90E03DDFFA
:1002D00044E150E062E070E089E191E036DF33DF35
:1002E00080E090E008951F920F920FB60F921124B4
:1002F0008F939F938CB1809300018CB98091000102
:1003000090E0C097909328018093270185B3809552
:1003100085BB9F918F910F900FBE0F901F901895E6
:04032000F894FFCF7F
:00000001FF
