S01800004763634170706C69636174696F6E31302E737265632A
S11300000C942A000C943C000C943C000C943C008E
S11300100C943C000C943C000C943C000C943C006C
S11300200C943C000C943C000C943C000C943C005C
S11300300C943C000C94A3000C943C000C943C00E5
S11300400C943C000C943C000C943C000C943C003C
S11300500C943C0011241FBECFE5D8E0DEBFCDBF19
S113006020E0A0E6B0E001C01D92A136B207E1F79E
S11300700E944C000C94B6000C94000090BD89B909
S113008088E18AB98EE880BD08955D9BFECF95B363
S1130090909595BB8CB90895CF93DF9300D000D091
S11300A0CDB7DEB787E690E00E943E007894579A79
S11300B085E60E9445008FEF84BB15BA2FEF33E22B
S11300C084EF215030408040E1F700C0000082E31B
S11300D0898383E38A8384E38B8385E38C8382E34C
S11300E00E94450085B3809585BB9FEF27E438EED9
S11300F081E09150204030408040D9F700C000009A
S113010001E010E0E12CF12CE1E0F0E0EC0FFD1F48
S1130110E00FF11F80810E94450085B3809585BB67
S11301209FEF27E438EE81E091502040304080403A
S1130130D9F700C000000F5F1F4F0430110521F7ED
S11301400E2D1F2DE1CF1F920F920FB60F92112487
S11301508F938CB1809360008CB985B3809585BBF7
S11301608F910F900FBE0F901F901895F894FFCFAA
S9030000FC
