S01500007761746368646F6774696D65722E737265639D
S113000045C0000060C000005EC000005CC000008D
S11300105AC0000058C0000056C0000054C0000080
S113002052C0000050C000004EC000004CC0000090
S11300304AC0000048C0000046C0000044C00000A0
S113004042C0000040C000003EC000003CC00000B0
S11300503AC0000038C0000036C0000034C00000C0
S113006032C0000030C000002EC000002CC00000D0
S11300702AC0000028C0000026C0000024C00000E0
S113008022C0000020C000001EC0000011241FBEBA
S1130090CFEFD0E1DEBFCDBF11E0A0E0B1E0EEECE8
S11300A0F2E000E00BBF02C007900D92A033B1074D
S11300B0D9F721E0A0E3B1E001C01D92A133B2075A
S11300C0E1F78AD002C19CCFCF93DF93CFE0CABBC4
S11300D080E091E0EED0CBBB2FEF81EE94E0215095
S11300E080409040E1F700C00000D0EFDBBB2FEF71
S11300F081EE94E0215080409040E1F700C0000080
S113010084E091E0D6D0CBBB2FEF81EE94E0215078
S113011080409040E1F700C00000DBBB2FEF81EE90
S113012094E0215080409040E1F700C0000088E056
S113013091E0BFD0CBBB2FEF81EE94E02150804003
S11301409040E1F700C00000DBBB2FEF81EE94E0AC
S1130150215080409040E1F700C000008CE091E025
S1130160A8D0CBBB2FEF81EE94E02150804090408B
S1130170E1F700C00000DBBB2FEF81EE94E02150DB
S113018080409040E1F700C000001BBA2FEF81EEE1
S113019094E0215080409040E1F700C00000DF91DE
S11301A0CF910895CF93DF9310923001C5E0D0E052
S11301B02FEF80E792E0215080409040E1F700C0AB
S11301C00000809130018F5F809330016ED02197C1
S11301D079F7DF91CF9108953BD04BD080913001D6
S11301E064D02FEF83ED90E3215080409040E1F7FD
S11301F000C0000069DF7894D8E1CFE014D00FB6D6
S1130200F894A895D1BD0FBEC1BDA895CBDF0FB69C
S1130210F894A89581B5886181BD11BC0FBE13D037
S11302208FEF43D0EBCF86B7806186BF1EBC1DBC69
S11302301CBC88E09DE39BBD8ABD1FBC85E08EBDD0
S113024010927A00089506B604FEFDCFECCF08950F
S11302501BB81AB8E5E9F0E01082599A8AB18869A6
S11302608AB980818E60808387E689B91092900074
S11302700895CF93DF93CBE9D0E01882AAE9B0E0E8
S11302801C92EDE9F0E010828881826088838C9171
S113029088698C9380818E60808387E6809399003F
S11302A010929800DF91CF9108955D9BFECF8CB999
S11302B00895FC019081992339F031965D9BFECF1E
S11102C09CB991919111FACF0895F894FFCF53
S11302CE5F615F005F625F005F635F005F645F009A
S11302DE206C65645F612000206C65645F622000A1
S11302EE206C65645F632000206C65645F6420008D
S9030000FC
